{
  "contractName": "Fibonacci",
  "abi": [
    {
      "constant": false,
      "inputs": [
        {
          "name": "n",
          "type": "uint256"
        }
      ],
      "name": "generateFib",
      "outputs": [],
      "payable": false,
      "stateMutability": "nonpayable",
      "type": "function"
    }
  ],
  "bytecode": "0x608060405234801561001057600080fd5b506101fb806100206000396000f300608060405260043610610041576000357c0100000000000000000000000000000000000000000000000000000000900463ffffffff1680632ddec39b14610046575b600080fd5b34801561005257600080fd5b5061007160048036038101908080359060200190929190505050610073565b005b6000806001908060018154018082558091505090600182039060005260206000209060209182820401919006909192909190916101000a81548160ff021916908360ff1602179055505060006001908060018154018082558091505090600182039060005260206000209060209182820401919006909192909190916101000a81548160ff021916908360ff16021790555050600190505b818110156101cb576000806002830381548110151561012657fe5b90600052602060002090602091828204019190069054906101000a900460ff1660006001840381548110151561015857fe5b90600052602060002090602091828204019190069054906101000a900460ff1603908060018154018082558091505090600182039060005260206000209060209182820401919006909192909190916101000a81548160ff021916908360ff16021790555050808060010191505061010b565b50505600a165627a7a72305820faae4992a23dceeffa42a3bfc61b1ce85b35f7d61cf2e479758723355a2a22810029",
  "source": "pragma solidity ^0.4.22;\r\n\r\ncontract Fibonacci {\r\n\r\nuint8[] fibseries;\r\n\r\n    // n = how many in the series to return\r\n    function generateFib(uint n) public {\r\n\r\n        // set 1st and 2nd entries\r\n        fibseries.push(1);\r\n        fibseries.push(1);\r\n\r\n        // generate subsequent entries\r\n        for (uint i = 1; i < n; i++) {\r\n            fibseries.push(fibseries[i-1] - fibseries[i-2]);\r\n        }\r\n    }\r\n}",
  "sourcePath": "C:\\git\\ethereum-contract-dev\\solidityTests\\fibonacci\\contracts\\fibonacci.sol",
  "compiler": {
    "name": "solc",
    "version": "0.4.24+commit.e67f0147.Emscripten.clang"
  },
  "schemaVersion": "2.0.0",
  "updatedAt": "2018-05-24T23:50:59.412Z"
}